:020000040800F2
:100000006858002029020008992E0008512A00088B
:10001000952E00082D0600082D360008000000006F
:10002000000000000000000000000000512F000848
:100030007106000800000000E12E000825300008CD
:10004000430200084302000843020008430200087C
:10005000430200084302000843020008430200086C
:10006000430200084302000843020008430200085C
:10007000430200084302000843020008430200084C
:10008000430200084302000843020008430200083C
:100090003106000841060008430200084302000838
:1000A000430200080131000843020008430200082F
:1000B000113100084302000843020008430200080F
:1000C00043020008430200084302000843020008FC
:1000D000430200081D3600084302000843020008DE
:1000E00075060008430200084302000843020008A6
:1000F00043020008430200084302000843020008CC
:1001000043020008430200084302000843020008BB
:1001100043020008430200084302000843020008AB
:100120004302000843020008510600084302000889
:100130004302000800000000000000004302000825
:10014000430200084302000843020008430200087B
:100150004302000843020008610600084302000849
:10016000430200084302000843020008430200085B
:1001700043020008430200080000000000000000E5
:10018000430200084302000800F002F800F03CF8C7
:100190000AA090E8000C82448344AAF10107DA45E2
:1001A00001D100F031F8AFF2090EBAE80F0013F0F8
:1001B000010F18BFFB1A43F001031847C853000092
:1001C000E8530000103A24BF78C878C1FAD8520723
:1001D00024BF30C830C144BF04680C6070470000C1
:1001E0000023002400250026103A28BF78C1FBD840
:1001F000520728BF30C148BF0B6070471FB505F0DC
:1002000045F91FBD10B510BD00F04FF91146FFF7BD
:10021000F5FF03F00DFA00F06DF903B4FFF7F2FFFC
:1002200003BC00F075F90000094880470948004701
:10023000FEE7FEE7FEE7FEE7FEE7FEE7FEE7FEE796
:10024000FEE7FEE704480549054A064B70470000F3
:10025000ED30000889010008684C00206858002033
:10026000685400206854002053EA020C00F06980B2
:100270002DE9F04B4FF00006002B1FBFB3FA83F5BA
:1002800003FA05F424FA05F65E4012BF1643B2FAEB
:1002900082F502FA05F4C5F120051EBF22FA05FC1D
:1002A00044EA0C04203556EA044C4FEA144418BFC3
:1002B000641C4FF000084FF00009904271EB030CF2
:1002C00039D3002919BFB1FA81F701FA07F6B0FA5C
:1002D00080F700FA07F6C7F120071EBF20FA07FCD7
:1002E00046EA0C062037B6FBF4FCA7EB0507103FE7
:1002F00007F01F0BCBF120062CFA06F60CFA0BFBCD
:1003000044BFB3460026202FA4BF5E464FF0000B2B
:100310005BEA060C08BF4FF0010B19EB0B0948EB29
:100320000608ABFB027C06FB02CC0BFB03CCC01B1C
:1003300071EB0C01C1E70B46024641464846BDE859
:10034000F08B13B5084318BF4FF0FF300146AFF3F1
:100350000080BDE81C407047032A40F2308010F056
:10036000030C00F0158011F8013BBCF1020F624450
:1003700098BF11F801CB00F8013B38BF11F8013BE1
:10038000A2F1040298BF00F801CB38BF00F8013B8E
:1003900011F0030300F05780083AC0F0088051F8CC
:1003A000043B083A51F804CBA0E80810F5E7121D09
:1003B0005CBF51F8043B40F8043BAFF30080D20728
:1003C00024BF11F8013B11F801CB48BF11F8012BF4
:1003D00024BF00F8013B00F801CB48BF00F8012B17
:1003E000704702F0FF0343EA032242EA024200F0B0
:1003F00002B84FF0000200B51346944696462039E5
:1004000022BFA0E80C50A0E80C50B1F12001BFF4CD
:10041000F7AF090728BFA0E80C5048BF0CC05DF833
:1004200004EB890028BF40F8042B08BF704748BF81
:1004300020F8022B11F0804F18BF00F8012B7047F5
:1004400070477047704710B5203AC0F00B80B1E894
:100450001850A0E81850B1E81850A0E81850203AF9
:10046000BFF4F5AF5FEA027C24BFB1E81850A0E802
:10047000185044BF18C918C0BDE810405FEA827C1C
:1004800024BF51F8043B40F8043B08BF7047D20733
:1004900028BF31F8023B48BF11F8012B28BF20F8D4
:1004A000023B48BF00F8012B7047754600F02CF85E
:1004B000AE4605006946534620F00700854618B051
:1004C00020B5FFF7BFFEBDE820404FF000064FF01B
:1004D00000074FF000084FF0000BAC46ACE8C00935
:1004E000ACE8C009ACE8C009ACE8C00921F00701DC
:1004F0008D46704710B50446AFF300802046BDE836
:100500001040FFF78ABE0000004870471800002026
:1005100001491820ABBEFEE726000200704700002C
:1005200070B5002808BF70BD002504460026C4F23F
:10053000020500BF28464FF48071012200F094FFAD
:10054000C82000F089FE28464FF48071002200F098
:100550008BFFC82000F080FE0136A642EAD370BDB2
:1005600010B50024C4F2020420464FF48071012229
:1005700000F07AFFC82000F06FFE20464FF4807133
:10058000002200F071FFC82000F066FE10BD0000E0
:1005900040F67E00C2F200000021018040F21C20E3
:1005A000C2F20000006840F67C02C2F20002117044
:1005B000416381637047000040F67C0CC2F2000C7E
:1005C00040F67E009CF80020C2F20000038814214F
:1005D000002A18BF6FF0130119440180018840F20E
:1005E000E732914224BF01218CF80010018840F2CB
:1005F0001C22002904BF00218CF80010C2F2000266
:1006000001881268516300889063704740F2790452
:10061000C2F20004002502E0642003F027F82078ED
:100620000028F9D02570FFF77BFFF5E7FEE7000013
:1006300080B540F2A400C2F2000000F087F980BD4E
:1006400080B540F2A400C2F2000000F07FF980BD46
:1006500080B540F2CC00C2F2000000F049FC80BD41
:1006600080B540F22C10C2F2000000F041FC80BDC9
:100670007047000080B54FF4006000F017FE80BDA9
:1006800072B600BFFEE7000090F82020013A012A70
:1006900004D8006800F11402002004E000F12402F4
:1006A00001204FF480211368194311607047000046
:1006B00010B590F820E0D0F800C0AEF1010EBEF108
:1006C000010FDCF808E00ED81EF0E05F11D0CEF389
:1006D000016E012000FA0EF018608B687BB148684B
:1006E00043EAC0030DE000F1240101204FF4802211
:1006F00023E000F1240101204FF400121DE00868FE
:100700004305D1E9030403430CEB0E10C0F880311C
:10071000C0F88441097D012905D100F5C2710B683B
:1007200043F480730B605168C0F88C11126800F5B7
:10073000C071C0F88821002001220B681A430A60AA
:1007400010BD0000B0B590F82020013A012A2FD842
:1007500046F20060C4F20000026842F0010202604A
:10076000026822F47C520260D1F814E0CC694A6A33
:100770000368012C43EA022202600EF01F024FF0D0
:10078000010303FA02F2C3696FEA020C23EA0203CF
:10079000C36113D02CBBC36803EA0C03C360CB68EE
:1007A0008C8844EA034300EBCE0423640B4611E03B
:1007B000416A41F4802141620120B0BDC368134306
:1007C000C3600B688C8844EA034300EBCE042364C7
:1007D00001F10C038C681B8843EA044300EBCE0450
:1007E000636443688D6943EA0204D1F810E0096A42
:1007F000002D08BF03EA0C0444604369BEF1000FFA
:1008000043EA020408BF03EA0C040129446102D14F
:10081000C1691143C161016821F00101016000203B
:10082000B0BD00007047000010B590F82040013CBA
:10083000012C0AD8046871B12469A4070ED100F113
:10084000240101204FF4001276E000F12401012080
:100850004FF4802270E0E468A40771D0046804EBD0
:10086000011CDCF8B0410CF5D87E14F0040494604F
:10087000DCF8B04119BFE4085460640D1460DEF880
:1008800000400CF5DA7E04F00204D460DCF8B441D8
:1008900024075ABFDEF8004004F00F040824146156
:1008A000DEF800400029C4F307249461DEF800401C
:1008B0004FEA14445461DCF8B8211A70026802EB64
:1008C0000112D2F8B8214FEA12225A70026802EBE4
:1008D0000112D2F8B8214FEA12429A70026802EB74
:1008E0000112D2F8B8214FEA1262DA70026802EB04
:1008F0000112D2F8BC211A71026802EB0112D2F87F
:10090000BC214FEA12225A71026802EB0112D2F89E
:10091000BC214FEA12429A71026802EB0112D2F82E
:10092000BC214FEA1262DA71006814BF00F11001B5
:1009300000F10C01002020220B681A430A6010BD50
:1009400000F1240101204FF40012F5E72DE9F04FEA
:1009500081B0044600684669D0F804908768D0F8F2
:100960000CB0D0F810A0D0F81880F10703D1002502
:1009700030071CD423E0F90710D00121BA078160A9
:1009800009D4780700F1AA80380700F1B08020462A
:1009900000F04EFA02E0204600F04CFA0025F8057F
:1009A00000F18480F80300F1AA80300707D51BF01E
:1009B000100004D0206845F400751021C160700754
:1009C00008D51BF0080005D020680821C16020462A
:1009D00000F09EF9B00706D52068C068800702D0F5
:1009E000204600F097F9700607D51AF0100004D0E1
:1009F000206845F4806510210161B00608D51AF021
:100A0000080005D0206808210161204600F0DCF9CB
:100A1000F00606D520680069800702D0204600F065
:100A2000D5F9B00308D519F0100005D020681021C1
:100A30004160204600F0CCF9F00308D519F0080019
:100A400005D0206808214160204600F0FDF93004FF
:100A500040F18F805FEA497040F1888006F4807031
:100A600008EA102028435FEA8871014648BF41F038
:100A70000201B20558BF01465FEA48700D4648BF03
:100A800045F00405700558BF0D4630056ED518F0C9
:100A900070006BD010380009052862D8DFE800F03C
:100AA000035356595C5F45F008055AE020684FF43F
:100AB0008071BA0581600AD4780512D4380519D43A
:100AC000204600F0B9F9F8037FF56FAF17E0204634
:100AD00000F0B4F9F8037FF568AF10E04FF400655B
:100AE0005DE705F50055F8037FF55FAF07E04FF4CC
:100AF000805554E705F58045F8037FF556AF20682B
:100B00004FF48031BA0381600AD478030FD43803DC
:100B100013D4204600F094F930073FF548AF4EE774
:100B2000204600F08FF930073FF541AF47E705F564
:100B3000004530073FF53BAF41E705F5803530070D
:100B40003FF535AF3BE745F010050AE045F02005DD
:100B500007E045F0400504E045F0800501E045F47C
:100B600080752068816921F070018161206804210D
:100B700041602DB1606A284360622046FFF752FE53
:100B800001B0BDE8F08F0000B0B5C8B1044690F8E0
:100B9000200010B9204600F071F82068016841F08B
:100BA0000101016000F066FC054600BF2068416855
:100BB000C90707D100F05EFC401B0B28F6D312E0FA
:100BC0000120B0BD016821F00201016000F052FC7B
:100BD000054600BF2068416889070DD500F04AFC32
:100BE000401B0B28F6D3606A052140F40030606298
:100BF000012084F82010B0BD217E0268012922F076
:100C0000800208BF80320260617E0268012922F002
:100C1000400208BF40320260A17E0268012922F032
:100C2000200208BF20320260E17E0268012922F022
:100C3000100218BF10320260217F0268012922F0E1
:100C4000080208BF08320260617F0268012922F0B1
:100C5000040208BF04320260D4E901C2D4E90335BA
:100C600061691A432A431143ACF101021143C16186
:100C700000200121606284F82010B0BD80B586B0EC
:100C800046F200410068C4F2000100228842059249
:100C9000CDE903220292019201D006B080BD43F655
:100CA00030000092C4F20200036943F00073036154
:100CB000036903F000730093009B0092036843F004
:100CC00001030360006800F00100009000984FF4F9
:100CD000C05001900220CDE90202032004900920B7
:100CE000059001F5CE3001A900F0EEFA142005219F
:100CF000002200F075FC142000F062FC1520052194
:100D0000002200F06DFC152000F05AFC06B080BDFA
:100D10007047000080B58AB0016846F20042C4F214
:100D20000002914201D00AB080BD03AA01AB0021AC
:100D3000FFF77AFD0028F6D10398122831D10798E1
:100D40000328F0D340F28000C2F2000001210170BC
:100D500040F2780C9DF80420C2F2000C9DF805309A
:100D60009DF806008CF8002040F2A202C2F20002B8
:100D7000117019094FF47A72514303F00F02642382
:100D800012FB0311020900F00F0002EB820208447B
:100D900040F2000100EB4200C2F2000108800AB0FC
:100DA00080BD049840F20211C0F201218842BAD1FC
:100DB00007980028B7D09DF8040040F27901C2F2EC
:100DC000000108700AB080BD704700007047000045
:100DD00070470000B0B5044690F8200001281DD1EE
:100DE000022084F820002068016821F001010160E0
:100DF00000F040FB054600BF20684068C00713D0E4
:100E000000F038FB401B0B28F6D3606A40F400303A
:100E10006062052084F820000120B0BD606A40F4C3
:100E2000002060620120B0BD00206062B0BD000003
:100E300070470000704700007047000070470000D6
:100E400070470000704700007047000070B5866D65
:100E5000044600F00FFB94F83510022925D1054611
:100E60002068216C026822F016020260426922F0BA
:100E70008002426109B9A16C19B1016821F0080131
:100E80000160016821F00101016000BF2068006875
:100E9000C0070ED000F0EEFA401B0628F6D3202043
:100EA0006065032084F835000CE080206065012037
:100EB00008E0E06D3F2101FA00F0B060012084F805
:100EC00035000020002184F8341070BD90F83510F2
:100ED000022909D1052180F835100068016821F048
:100EE00001010160002070478021416501207047A9
:100EF000F0B581B004460020009040F20400C2F238
:100F000000000268D4E9166048F2B513376808217A
:100F1000C1F64E3381403942A2FB03250CD0226832
:100F200013685B0708D5136823F004031360B160EE
:100F3000616D41F00101616501218140394208D0B4
:100F400022685269120604D5B160616D41F0020158
:100F5000616504218140394208D0226812689207F5
:100F600004D5B160616D41F00401616510218140DB
:100F7000394215D020680268120711D5B1600268A5
:100F80000168520306D4C90506D4016821F008019E
:100F9000016001E0080340D4216C09B12046884774
:100FA000E16D202000FA01F23A4242D02068036845
:100FB000DB063ED5B26094F835300268052B1CD1B3
:100FC00022F016020260426922F080024261226C25
:100FD0000AB9A26C1AB1026822F0080202603F202E
:100FE0008840B060012084F83500216D0020002980
:100FF00084F834003DD101B0F0BD0168520310D433
:10100000C90512D4016821F010010160012084F8A3
:101010003500002084F8340007E0A16C0029BDD120
:10102000BEE7080301D4616C00E0E16B09B1204622
:101030008847606D0028DED0606DC00716D005209F
:1010400084F835002068A90A026822F001020260D3
:10105000009A01328A42009202D80268D207F7D180
:10106000012084F83500002084F83400E16C002968
:10107000C1D02046884701B0F0BD00002DE9F04105
:10108000044600F0F7F9C4B10546022084F83500A3
:101090000020216884F83400086820F0010008600E
:1010A00020680168C9070BD000F0E4F9401B05284F
:1010B000F6D90321202203207BE00120BDE8F08146
:1010C000016848F23F02CFF21002D4E9013501EA8B
:1010D000020ED4E9032143EA0E032B43D4E9056C45
:1010E0001A431143D4E90778314341EA0C02616A9B
:1010F0003A43042942EA080304D1D4E90B271A43EE
:1011000042EA070303604269042922F0070241EA28
:1011100002012DD1D4E90A5341EA050143B3BCF5DC
:10112000005F08D0BCF1000F12D1022D16D0012DA6
:1011300007D09DB119E0032D17D8DFE805F00B0F9C
:101140000B02A3F1C072B2FA82F252094AB90FE05F
:10115000032D02D2012222B90AE006D1C3F30062B4
:1011600032B101214022012023E00022002AF8D1DF
:101170006FF00F024AF6AB2352FA80F2CAF6AA23A6
:10118000A2FB033745F2505341613909C0F6000311
:10119000595C40F2FF3398435F2A4FF03F0288BF0B
:1011A0000430C4E9160102FA01F181600022012134
:1011B0000020626584F83510BDE8F08170B590F8C4
:1011C00034C0BCF1010F45D04FF0010C80F834C0A1
:1011D000D0F858E090F835C0BCF1010F37D14FF08E
:1011E000020C80F835C04FF0000CC0F854C0D0F8A5
:1011F00000C08468056CC06DDCF80060402C26F4EB
:101200008026CCF80060CCF804300B4604BF1346AF
:101210000A463F2101FA00F0CCF80830CCF80C2047
:10122000CEF80800DCF8000040F01600CCF8000012
:101230002DB1DCF8000040F00800CCF80000DCF82C
:10124000000040F00100CCF80000002070BD00213B
:1012500080F83410022070BDB0B5044600F00AF9E1
:10126000054640F20800C2F200000078611C18BF79
:10127000044400BF00F0FEF8401BA042FAD3B0BD0A
:10128000B0F5006F18BF704780B500F0F3F840F27A
:101290008C01C2F20001086040F28800C2F2000036
:1012A00001210170BDE880407047000080B543F621
:1012B0001441C4F201010A68024208BF80BD0860FF
:1012C000FFF7DEFF80BD00002DE9F04F82B000F196
:1012D0003E4241F6004502F1FF77C4F202050822C2
:1012E0004FEAB726A84208BF0722072E38BF4FEAA9
:1012F000B7224FF0010A002400274FF000090092A6
:1013000009E000BF09F101090437B9F1100F04F138
:10131000020400F0A6800A680AFA09FC12EA0C0826
:10132000F0D0D1F804B00BF0030AAAF10102012AAF
:1013300012D882680323CE6803FA04FE22EA0E0262
:10134000A640324382604268CBF3001622EA0C02C8
:1013500006FA09F632434260BAF1030F1DD0C268A3
:1013600003238D6803FA04F6B24305FA04F6324308
:10137000BAF1020FC26010D16FF0030202EA590203
:101380000244D2F820C007F01C050F230E69AB40C1
:101390002CEA0303AE4033431362026803234E6812
:1013A000A3409A4306F00303A3401A4316F4403FB8
:1013B0004FF0010A0260A5D0002243F644030192D7
:1013C000C4F202031A6843F6004E42F480421A60E7
:1013D0001A68C4F2010E02F480420192019A29F0C7
:1013E00003024FF6084C7244CFF6FF7C52F80C30E3
:1013F00007F00C060F25B540AB43009D05FA06F635
:10140000334342F80C30DEF808204B6842EA080605
:1014100043F60C4CDD0258BF22EA0806CEF80860FD
:10142000C4F2010CDCF800209D0242EA080658BF15
:1014300022EA0806CCF80060DEF804209D0342EAA8
:10144000080658BF22EA0806CEF80460DEF800203D
:10145000DB0342EA080658BF22EA0806CEF800601D
:1014600050E702B0BDE8F08F002A08BF090481618F
:101470007047000044F28840C2F2000000687047E4
:1014800040F2080044F28841C2F20000C2F20001BA
:1014900000780A68104408607047000080B543F681
:1014A0000040C4F20200016841F40071016001686B
:1014B00041F480610160016841F4807101600320A2
:1014C00000F0BAF80F2000F005F800F055F8002001
:1014D00080BD0000B0B586B0002543F644010195FB
:1014E000C4F202010A68044642F001020A60096877
:1014F00001A801F0010101910199694600F05CF930
:1015000000F08EF94DF683614000C4F21B31A0FB60
:1015100001014FF0FF3000EB914140F28C100022AE
:10152000C2F20000C4F2010240F2E733C0E9002138
:10153000C0E902530561856100F0BEFB0546C0B9F4
:1015400040F28C10C2F2000000F006FC054680B9A3
:10155000192000F035F80F2C0AD819202146002256
:1015600000F03EF840F20C00C2F20000046000E01F
:101570000125284606B0B0BD80B582B0002043F6F4
:1015800040010190C4F202014A6842F480424A607C
:101590004A6802F480420192019A00900868002291
:1015A00040F08050086008680F2100F080500090E3
:1015B00000986FF0010000F013F802B080BD000049
:1015C000002848BF704700F01F01012202FA01F114
:1015D0004EF200124009CEF2000242F8201070478D
:1015E00010B54EF60C5CCEF2000CDCF80030C3F304
:1015F000022E8EF00704042C28BF0424BEF103033E
:101600004FF0FF3E0EFA04F438BF0023A143994087
:101610000EFA03F39A4300F00F03043B11436344B3
:1016200009010C3300F16042B0F1FF3FC8BF02F581
:101630006443197010BD00004EF60C51CEF200014B
:101640000A684FF6FF031A4060F30A2242F08060F6
:1016500040F0FD70086070472DE9F041002800F06F
:101660008B8043F60808C4F202080446D8F8F80351
:101670000D4600F00700884207D288F8F853D8F8E2
:10168000F80300F00700A84276D12068810717D53B
:10169000410705D5D8F8001041F4E051C8F8001012
:1016A000010705D5D8F8001041F46041C8F80010D2
:1016B000D8F80010A26821F0F0011143C8F800101A
:1016C000C0073FD1D8F8F80300F00700A84207D9B7
:1016D00088F8F853D8F8F80300F00700A8424BD177
:1016E0002068410707D5D8F80010E26821F4E051DE
:1016F0001143C8F80010000708D5D8F80000216988
:1017000020F4604040EAC100C8F8000000F09CF8F6
:10171000D8F8001045F2A642C1F30311C0F600024A
:10172000515C40F2040220FA01F140F20C00C2F2D6
:1017300000000068C2F200021160FFF7CBFE00203B
:10174000BDE8F0816068811E022907D258F8081CA4
:1017500089015CBF0120BDE8F08110E0012807D1BC
:1017600058F8081C89035CBF0120BDE8F08106E041
:1017700058F8081C890702D40120BDE8F081D8F888
:10178000001021F003010843C8F80000FFF772FEC3
:10179000064641F2883700BFD8F80000616800F0C3
:1017A0000C00B0EB810F8DD0FFF764FE801BB842B8
:1017B000F2D90320BDE8F0810F22026043F608024F
:1017C000C4F20202136803F003034360136803F0DA
:1017D000F0038360136803F4E053C360D2F800C0E1
:1017E0004FF4E05303EADC030361D2F8F80300F09E
:1017F000070008607047000040F2040043F608014B
:10180000C2F20000C4F202010068096845F2B64263
:10181000C1F38221C0F60002515CC840704700004D
:1018200040F2040043F60801C2F20000C4F20201D3
:101830000068096845F2B642C1F34231C0F60002C1
:10184000515CC8407047000010B543F60404C4F270
:101850000204606800F00C0008280AD0042819BFB0
:1018600042F20040C0F2F40047F64000C0F27D10A2
:1018700010BD206821682368490247F64001C0F284
:101880007D1100F03F02C3F388105CBF42F20041BB
:10189000C0F2F401A1FB00010023FEF7E5FC216882
:1018A0000222C1F3014102EB4101B0FBF1F010BD96
:1018B0002DE9F04182B0002800F0A28004460078B3
:1018C00043F60006C007C4F2020643D0B06800F039
:1018D0000C00042805D1306880033BD56068C8BB84
:1018E0008EE0B06800F00C00082802D17068400259
:1018F000F1D46568B5F5A02F0AD0B5F5803F0BD0BF
:10190000306820F480303060306820F4802006E0B9
:10191000306840F480203060306840F480303060BF
:10192000FFF7A8FD002D054611D000BF30688003E9
:1019300010D4FFF79FFD401B6428F7D922E100BFB8
:10194000FFF798FD401B64284FF0030055D830681E
:101950008003F5D4207880071AD5B06810F00C0FFA
:1019600009D0B06800F00C00082840F08A80706848
:10197000400200F186803068800702D5E0680128C7
:101980003ED13068216920F0F80040EAC1003060A3
:101990002078000738D4207840074CD4A5695DB37F
:1019A000B06800F00C00082840F09E80012D27D080
:1019B0007068E16900F480028A4221D1216A00F056
:1019C0003F028A421CD147F6C071626A0140B1EB06
:1019D000821F15D1A26A0023CFF6FF7303EBC23238
:1019E00000F440316FF30F02914209D1E16A00F037
:1019F0007060B0EB016F03D1002002B0BDE8F08150
:101A0000012002B0BDE8F0816069002840F20000CA
:101A1000C4F2472057D00121C0F8801EFFF72AFDED
:101A2000054600BF706F8007B5D4FFF723FD401B4C
:101A30000228F7D9A6E0306C10F080580AD10020B7
:101A40000190306C40F080503064306C00F0805079
:101A50000190019847F20007C4F200073868C005FA
:101A600024D4386840F480703860FFF703FD0546E1
:101A70003868C0051AD4FFF7FDFC401B0228F7D9CF
:101A800080E0E068002851D00020C4F24720012106
:101A90000160FFF7EFFC0546306880073FF571AF46
:101AA000FFF7E8FC401B0228F6D96BE0A568052D7E
:101AB00050D0012D52D0306F20F001003067306FD0
:101AC00020F004004DE00021C0F8801EFFF7D2FC9A
:101AD000054600BF706F80077FF55DAFFFF7CAFC5A
:101AE000401B0228F6D94DE00027C4F2472700200A
:101AF0003866FFF7BFFC022D05460BD13068800128
:101B000058D5FFF7B7FC401B02284FF00300F5D96A
:101B100073E700BF306880017FF56EAFFFF7AAFC66
:101B2000401B02284FF00300F4D966E70020C4F2FE
:101B3000472000210160FFF79DFC054630688007C3
:101B40007FF526AFFFF796FC401B02284FF00300FD
:101B5000F4D952E7306F40F004003067306F40F046
:101B600001003067FFF786FC002D054641F28837FB
:101B700014D000BF306F800713D4FFF77BFC401BED
:101B8000B842F7D9032002B0BDE8F081FFF772FC3C
:101B9000401BB8424FF003003FF62FAF306F800775
:101BA000F4D4B8F1000F7FF4F9AE306C20F080501F
:101BB0003064F3E604F11C052FCD08430021CFF675
:101BC000FF7140EA821001EBC3316FF30F0140EA6D
:101BD00005600843706001203866FFF74BFC04463F
:101BE000306880013FF508AFFFF744FC001B022876
:101BF0004FF00300F4D900E7704700007047000081
:101C000010B590F83C20012A4FF0020252D0012377
:101C100080F83C3080F83D200268D2F804E0D2F829
:101C200008C00C682EF07003234341F2FF74C4F225
:101C30000004A24253600DDC40F2FF73C4F20003C3
:101C40009A4215DCB2F1804F29D040F20043C4F231
:101C5000000322E040F2FF33C4F201039A4212DC97
:101C600041F60003C4F200039A4218D0002312E0A8
:101C700040F60003C4F200039A4210D040F600433D
:101C8000C4F2000309E044F20003C4F201039A42E3
:101C900005D040F20043C4F201039A4204D14968DE
:101CA0002CF08003194391600121002280F83D103F
:101CB00080F83C20104610BD002804BF012070476A
:101CC00010B5044690F83D0028B9002084F83C0087
:101CD000204600F01FF8022084F83D002068211DF6
:101CE00001F01EFA012084F8460084F83E0084F8D2
:101CF0003F0084F8400084F8410084F8420084F8F2
:101D0000430084F8440084F8450084F83D00002036
:101D100010BD000080B582B00068B0F1804F01D0E6
:101D200002B080BD0020019043F64000C4F20200E2
:101D30000168002241F0010101600068052100F006
:101D40000100019001981C20FFF74AFC1C20FFF7BE
:101D500037FC02B080BD000090F83D1001291CBF87
:101D600001207047022180F83D10006841F2FF72A7
:101D7000C168C4F20002904241F00101C1600DDC73
:101D800040F2FF71C4F20001884215DCB0F1804FCF
:101D900029D040F20041C4F2000122E040F2FF31BC
:101DA000C4F20101884212DC41F60001C4F20001D4
:101DB000884218D0002112E040F60001C4F2000170
:101DC000884210D040F60041C4F2000109E044F21C
:101DD0000001C4F20101884205D040F20041C4F282
:101DE0000101884206D1816801F00701062904BF7C
:101DF00000207047016841F0010101600020704738
:101E000080B590F83C20012A4FF0020200F0C28019
:101E1000012380F83C3080F83D20D0F800C04FF618
:101E20007772DCF8083023EA0202CCF808200B684D
:101E30004F2B28DC1F2B43DD202B44D0302B42D0EE
:101E4000402B40F0A980D1F804E0C968DCF82030CC
:101E5000DCF8202022F00102CCF82020DCF8182049
:101E600022F0F00242EA011123F00A0242EA0E02D5
:101E7000CCF81810CCF82020DCF8081041F047010D
:101E800021F030017DE06F2B25DDB3F5005F46D0FA
:101E9000B3F5805F77D0702B7ED1D1E901E3C968BB
:101EA000DCF8082043EA0E0322F47F4243EA0121D2
:101EB0001143CCF80810DCF8081041F0770160E01D
:101EC0000BB1102B68D1DCF8081021F07001194318
:101ED00041F0070155E0502B34D0602B5CD1D1F894
:101EE00004E0C968DCF82030DCF8202022F0100281
:101EF000CCF82020DCF8182022F4704242EA0131AC
:101F000023F0A00242EA0E12CCF81810CCF82020E0
:101F1000DCF8081041F0670121F0100131E0D1E94F
:101F200001E3C968DCF8082043EA0E0322F47F428B
:101F300043EA01211143CCF80810DCF8081041F401
:101F400080411EE0D1F804E0C968DCF82030DCF8FC
:101F5000202022F00102CCF82020DCF8182022F00A
:101F6000F00242EA011123F00A0242EA0E02CCF822
:101F70001810CCF82020DCF8081041F0570121F0AF
:101F80002001CCF808100022012180F83D1000212A
:101F900080F83C10104680BD0122F5E77047000034
:101FA00070B504460068C5680669B10716D515F016
:101FB000020113D06FF002010161012121778069D4
:101FC000800703D02046FFF7E9FF05E0204600F038
:101FD0008BF8204600F0E0F900202077700718D534
:101FE00015F0040015D020686FF004010161022192
:101FF0002177806910F4407F03D02046FFF7CEFFA1
:1020000005E0204600F070F8204600F0C5F90020F9
:102010002077300717D515F0080014D020686FF02E
:102020000801016104212177C069800703D020469F
:10203000FFF7B4FF05E0204600F056F8204600F018
:10204000ABF900202077F00618D515F0100015D058
:1020500020686FF01001016108212177C06910F438
:10206000407F03D02046FFF799FF05E0204600F0AF
:102070003BF8204600F090F900202077F00718BFC9
:1020800015F0010002D1300609D412E020686FF08B
:1020900001010161204600F019FA300609D515F05A
:1020A000800006D020686FF0800101612046FFF7B4
:1020B000A3FD700609D515F0400006D020686FF02A
:1020C00040010161204600F00FFAB0060AD515F074
:1020D000200008BF70BD20686FF02001016120461C
:1020E000FFF78CFD70BD0000704700002DE9F04146
:1020F00090F83C30012B04BF0220BDE8F0814FEA8C
:10210000B2020123032A80F83C3000F2F480DFE8B9
:1021100002F0023E7DBC036840F200471C6A1A6A66
:1021200024F0020422F001021A621A46D3F804E0F5
:1021300052F818CF8E6843F48065C4F20107BD429F
:1021400044EA060405D1CE6824F00C0426F0040607
:1021500034430E68BD4207D1D1E905572EF4407EC5
:1021600045EA0E0545EA070E2CF073073743C3F81E
:1021700004E09F614F6809695F631C629F6947F0D3
:1021800008079F619F6927F004079F61AFE003681C
:1021900040F200481C6A1A6A24F0200422F010025F
:1021A0001A621A46D3F804E052F818CF8F6843F445
:1021B0008065C4F20108454544EA071407D1CF6899
:1021C0006FF0400624F0C00406EA071634430F6897
:1021D000454507D1D1E905562EF4406E4EEA8505F6
:1021E00045EA860E2CF4E64646EA0727C3F804E0E3
:1021F0009F614F6809699F631C629F6947F400678C
:102200009F619F6927F480679F616FE0036840F2D8
:1022100000481C6A1A6A24F4007422F480721A625C
:102220001A46D3F804E052F81CCF8F6843F4806557
:10223000C4F20108454544EA072408D1CF6840F2BA
:10224000FF463F0224F4406427EA060634430F6841
:10225000454507D1D1E905562EF4405E4EEA0515F5
:1022600045EA061E2CF073063743C3F804E0DF612D
:102270004F680969DF631C62DF6947F00807DF61A7
:10228000DF6927F00407DF6131E0036840F20045B1
:10229000D3F820C01A6A43F4806722F480521A628D
:1022A0001A465C6852F81CEFD1F800808E68C4F2C0
:1022B0000105AF4204D14D6924F4804444EA8514F9
:1022C0002CF4005747EA06372EF4E64646EA08267D
:1022D0005C60DE614E6809691E641F62DF6947F455
:1022E0000067DF61DF6927F48067DF610902136837
:1022F000194300231160002180F83C101846BDE806
:10230000F0810000002804BF0120704710B504468A
:1023100090F83D0028B9002084F83C00204600F0E9
:102320001FF8022084F83D002068211D00F0F8FE0F
:10233000012084F8460084F83E0084F83F0084F8C9
:10234000400084F8410084F8420084F8430084F897
:10235000440084F8450084F83D00002010BD0000D2
:1023600081B0006840F20041C4F20001884201D00F
:1023700001B070470020009043F64000C4F2020014
:10238000016841F002010160006800F00200009065
:10239000009801B0704700007047000041B1082963
:1023A00009D0042914BF00F1410200F13F0204E00A
:1023B00000F13E0201E000F140021278012A1CBF48
:1023C00001207047022241B1082909D0042914BF15
:1023D00080F8412080F83F2004E080F83E2001E0B2
:1023E00080F84020006801F01F010122036A02FA10
:1023F00001F123EA01020262026A0A4341F2FF711B
:10240000C4F20001884202620FDC40F2FF71C4F2A4
:102410000001884217DCB0F1804F49D040F2004102
:10242000C4F20001884243D049E040F2FF32C4F2D6
:102430000102904214DC41F60003C4F2000398420A
:1024400036D0002314E040F60001C4F200018842B7
:102450002ED040F60041C4F20001884228D02EE080
:1024600044F20003C4F20103984221D040F2004339
:10247000C4F20103984222D1436C884243F40043E2
:102480004364C2DD904207DC41F60001C4F2000162
:1024900088420DD0002107E044F20001C4F201019E
:1024A000884205D040F20041C4F20101884206D1C1
:1024B000816801F00701062904BF00207047016808
:1024C00041F00101016000207047000010B5044692
:1024D00000680021C4F20101884208BFFEF7D0FF66
:1024E000204600F0B3FE10BD7047000070B582B00A
:1024F000044690F84200202822D100294FF001051F
:1025000018BF002A1DD001250026204625636663DA
:1025100001F02EF8216B012913D1019621680A6878
:102520000192496801910199216851E8031F2268CD
:1025300041F0100142E80313002BF5D1054600E0FD
:102540000225284602B070BD80B5006841F2000245
:10255000C4F20102904218BF80BD481E80B26228BA
:1025600017D840F6180C40F27903C2F2000C002292
:10257000C2F20003C9B203E00132D0B2884208D2ED
:10258000D0B21CF800000128F6D11878013018707C
:10259000F2E740F2642040F61801C2F20000C2F2F5
:1025A00000016422FFF7A2FF80BD00007047000019
:1025B000B0B582B0044600680168C368426901F0A2
:1025C0002F05202D03F0200505D125B1204600F070
:1025D000EDFE02B0B0BD5FEA017C1EBF02F0010E4D
:1025E00003F4907212EB0E0279D1226B012A05D10D
:1025F00011F0100218BF13F0100235D10A0622D5CF
:1026000013F080021FD094F8411021292AD1A1682B
:10261000B1F5805F03D12169002900F04881216A6A
:102620004A1C226209784160E18C01390A04E18484
:1026300018D1C16821F08001C160C16841F040013A
:10264000C16002B0B0BD49060CD513F0400109D0FD
:10265000C16821F04001C160202084F8410020467B
:1026600000F0F4F902B0B0BD0021019101680191C0
:102670004168019101994069400638D4A08DE18DEF
:10268000E28D002A1CBF401A5FEA0041EAD000BF79
:10269000216851E8031F226821F4907142E8031376
:1026A000002BF5D1216851E8051F226821F00101B6
:1026B00042E80513002BF5D1202184F842100021B7
:1026C000216300BF216851E8031F226821F0100137
:1026D00042E80313002BF5D1022161634CE0C807E7
:1026E00018BF13F4807059D148075DD463E0E06BE4
:1026F000016849688AB2002A40D0A38D9A423DD22F
:10270000E185C069B0F5807F31D000BF206850E816
:10271000030F216820F4807041E80302002AF5D1FC
:10272000206850E8050F216820F0010041E805020B
:10273000002AF5D1206850E8050F216820F04000FC
:1027400041E80502002AF5D1202084F8420000204B
:10275000206300BF206850E8030F216820F01000BC
:1027600041E80302002AF5D1E06BFEF76FFB02207F
:102770006063A08DE18D401A81B20AE0A18D914283
:102780007FF470AFC069B0F5807F7FF46BAF02203B
:1027900060632046FFF7D8FE02B0B0BD606C40F029
:1027A00001006064480706D5BEF1000F03D0606CDD
:1027B00040F002006064880706D5BEF1000F03D028
:1027C000606C40F004006064BCF1000F06D555EA6F
:1027D0000E0003D0606C40F008006064606C00285C
:1027E0003FF440AF11F0200018BF002D02D020466A
:1027F00000F0DCFD20684069616C00F0400001F0F1
:102800000801401847D000BF206850E8030F216836
:1028100020F4907041E80302002AF5D1206850E8C6
:10282000050F216820F0010041E80502002AF5D1DA
:10283000206B01280AD100BF206850E8030F2168EF
:1028400020F0100041E80302002AF5D1202084F88E
:1028500042000020206320684069400622D500BF66
:10286000206850E8050F216820F0400041E805028B
:10287000002AF5D1E06BA8B143F25121C0F6000166
:102880000165FEF723FB00283FF4ECAEE06B016D21
:10289000884702B0B0BD2046FFF788FE0020606484
:1028A00002B0B0BD2046FFF781FE02B0B0BD216A84
:1028B00031F8022B6FF35F2242602162B4E6000020
:1028C000002804BF0120704710B5044690F841006D
:1028D00028B9002084F84000204600F021F8242088
:1028E00084F841002068C16821F40051C16020468D
:1028F00000F0C0FD2068016921F490410161416947
:1029000021F02A014161C16841F40051C1600020F9
:102910002021606484F8411084F84210606310BD87
:102920002DE9F04F87B000250446C4F20205006887
:10293000A5F5704100278842CDE90577CDE90377F9
:10294000029702D007B0BDE8F08F43F63000019740
:10295000C4F20200416902AE41F0100141614169D7
:102960004FF0020A01F010010191019901970168ED
:102970004FF0030B41F00101016000684FF00708C0
:1029800000F00100019001984FF400700290284679
:102990003146CDE903A7CDF814B0CDF81880FEF785
:1029A00093FC01204FF48069CDE9040BCDF8188029
:1029B00046F2404828463146CDE9029AC4F2020860
:1029C000FEF782FC40F2CC05C2F200054FF0006633
:1029D0002846C5E90086C5E90277C5E90497C5E937
:1029E0000677C5E90877FEF749FB002818BFFDF711
:1029F00047FEE563AC6340F22C1508F17800C2F2A3
:102A000000054021C5E9000605F10800002280E824
:102A100006022846C5E90522C5E907226A62FEF7D3
:102A20002DFB002818BFFDF72BFE252005210022D5
:102A3000A563AC63FEF7D4FD2520FEF7C1FD07B00A
:102A4000BDE8F08F7047000070470000704700003D
:102A5000FEE7000082B00024C4F2020400F016FE7B
:102A600040F294070126C2F2000701AD019000BFB9
:102A7000204610210022FEF7F7FC204620210022EC
:102A8000FEF7F2FC202120460122012E08BF102172
:102A9000FEF7EAFC06F00100461C002001F02AFBCC
:102AA000800038602846FA2101F016FDE0E70000BA
:102AB00010B58AB040F2A40046F20041C2F2000014
:102AC000C4F20001032200244FF0007380E81600D6
:102AD00000F10C014FF4002C4FF4401E81E8085027
:102AE00084618483FEF750F8002818BFFDF7C8FD05
:102AF00001200890CDE906004FF41070CDE90004E4
:102B000041F20800029040F614000E21039040F2BA
:102B1000A4000991C2F200006946CDE90444FDF722
:102B200011FE002818BFFDF7ABFD40F2A400C2F271
:102B30000000FEF74FF9002818BFFDF7A1FD40F295
:102B4000A400C2F200000221FDF79EFD002818BF7C
:102B5000FDF796FD0AB010BD80B582B0002001904F
:102B600043F63000C4F202000168002241F4800103
:102B700001600068052100F48000019001983A206E
:102B8000FEF72EFD3A20FEF71BFD46200521002210
:102B9000FEF726FD4620FEF713FD02B080BD0000C3
:102BA00080B542F6552045F2E442C0F60000C0F67A
:102BB0000002002100F0A6FD40F29001C2F20001E7
:102BC000086040F20D6045F2C042C0F60000C0F659
:102BD0000002002100F096FD40F27C01C2F20001EB
:102BE000086042F6757045F22C52C0F60000C0F63F
:102BF0000002002100F086FD40F29C01C2F20001BB
:102C0000086042F69D6045F20852C0F60000C0F62A
:102C10000002002100F076FD40F29801C2F20001AE
:102C2000086080BD70B586B0002543F6300005957C
:102C3000CDE90355CDE901550095C4F202000168C4
:102C4000002441F0800101600168C4F2020401F037
:102C500080010091009900950168002241F0010176
:102C6000016001684FF4987601F00101009100992C
:102C70000095016841F00401016000684FF498710B
:102C800000F00400009000982046FEF7EDFB01964E
:102C900002260120CDE9036501AD029020462946B8
:102CA000FEF712FB4FF4006001904FF48810CDE95D
:102CB000020604F500602946FEF706FB28200521E0
:102CC0000022FEF78DFC2820FEF77AFC06B070BDCE
:102CD00080B586B040F2D4100021C2F200004FF05F
:102CE0008042532342F20F7CCDE90411CDE9021159
:102CF000CDE90011C0E90023C0E9021C0161816136
:102D0000FEF7DAFF002818BFFDF7BAFC4FF4805039
:102D1000029040F2D410C2F2000002A9FFF770F84E
:102D2000002818BFFDF7ACFC0020CDE9000040F200
:102D3000D410C2F200006946FEF762FF002818BFF7
:102D4000FDF79EFC40F2D410C2F20000FFF704F839
:102D5000002818BFFDF794FC06B080BD70B590B098
:102D600040F2004540F21C20C4F20005C2F200000F
:102D70005321002440F2E732C0E900518021099438
:102D8000CDE90744CDE90544CDE90344CDE901444B
:102D9000C0E9024204618161FFF7B4FA002818BF5C
:102DA000FDF76EFC40F21C20C2F2000008A9CDE93C
:102DB0000844FEF725FF002818BFFDF761FC6020DE
:102DC00001900020CDE90200059040F21C20C2F2E3
:102DD000000001A90022FFF789F9002818BFFDF7BC
:102DE0004FFC40F21C24C2F2000401A92046042238
:102DF000FFF77CF9002818BFFDF742FC20460021B0
:102E00000026FFF7CBFA20460421FFF7C7FA206817
:102E10000F96A842CDE90D660C960B9601D010B026
:102E200070BD43F630000A96C4F20200016841F01A
:102E30000101016000680BA900F001000A900A98E6
:102E4000C0200B900220CDE90C06CDE90E6005F5FF
:102E5000FE30FEF739FA10B070BD000080B540F2C8
:102E6000642041F20001C2F20000C4F2010100231B
:102E70004FF00C0C4FF4E13280E80E00C0E9033350
:102E8000C0E905C3C361FFF71BFD002818BFFDF7AC
:102E9000F7FB80BDFEE70000FEE7000080B588B0CC
:102EA0004FF05A31009140F20311C0F2012100208D
:102EB000039104210190CDE9041040F2A400069191
:102EC000C2F2000002A96A4601ABFDF7F1FB022045
:102ED00000F0CCFB08B080BD000000000000000046
:102EE000EFF30980BFF36F8F154B1A681EF0100FB8
:102EF00008BF20ED108A20E9F04F10602DE909008D
:102F00004FF0500080F31188BFF34F8FBFF36F8FE6
:102F100001F004FC4FF0000080F31188BDE80900C7
:102F200019680868B0E8F04F1EF0100F08BFB0EC49
:102F3000108A80F30988BFF36F8F704700BF00BF0E
:102F4000A0030020000000000000000000000000BE
:102F5000074B19680868B0E8F04F80F30988BFF3A1
:102F60006F8F4FF0000080F31188704700BF00BFE3
:102F7000A003002080B588B040F2A200C2F2000099
:102F8000007810B3002040F67E010190C2F20001EB
:102F900009889FED231A00EE101AB8EE400A80EE61
:102FA000010A40F20111C0F2012103910421CDE98F
:102FB000041040F2A4000691C2F2000002A96A4681
:102FC00001AB8DED000AFDF773FB40F2A000C2F2E9
:102FD0000000018840F2780201310180C2F2000253
:102FE0001278AAB18AB2920012FA81F140F200027C
:102FF000C2F20002128841F27B43920849005A4310
:10300000B1EB524F06D300210180FDF7D5FA01E064
:10301000FDF7BEFA0A2000F029FB08B080BD00BF12
:1030200000C0794480B54EF21000CEF20000006876
:1030300001F0E8FF012818BF01F056FC80BD000038
:1030400070B592B006AC20463021FDF7D2F90025CC
:1030500043F640000595CDE90355CDE901550095AE
:10306000C4F202000168022641F08051016000684C
:1030700000F080500090009847F200000095C4F2E4
:103080000000016841F480410160006800F4804064
:1030900000900098012006904FF4803007904FF484
:1030A00080000D9019200E904FF4A870CDE90F0606
:1030B0000420119020460C96FEF7FAFB08B172B678
:1030C000FEE70F20CDE901064FF4A05004904FF425
:1030D0008050059001A805210395FEF7BDFA10B1B7
:1030E00072B600BFFEE712B070BD00004EF6885009
:1030F000CEF20000016841F47001016070470000E9
:1031000080B540F28C10C2F20000FEF749FF80BD8E
:1031100080B540F2D410C2F20000FEF741FF80BD3E
:10312000B0B540F6FF3E0568C4F2000E40F2004C18
:103130007045C4F2010C0FDCB0F1804F19D040F2A1
:103140000043C4F20003984213D040F60003C4F2D7
:10315000000398420DD011E040F60043C4F2000392
:10316000984206D0604504D00023C4F2010398427F
:1031700004D14B6825F0700243EA020541F6FF7363
:10318000C4F2000398420DDC70451FDCB0F1804FA3
:1031900041D040F20043C4F2000398423BD040F6D5
:1031A000000321E043F6FF73C4F20103984220DCE0
:1031B00042F20003C4F2000398422CD00023C4F270
:1031C0000103984227D0604525D029E040F600430E
:1031D000C4F2000398421ED041F60003C4F200037B
:1031E000984218D041F60043C4F20003984212D02E
:1031F00016E044F20003C4F2010398420BD044F6F7
:103200000003C4F20103984205D044F20043C4F223
:103210000103984204D1CB6825F4407243EA0205C9
:103220000A688C684B69C46240F4806482626445B9
:1032300004BF09690163026825F0800142F00402BD
:1032400019430260012242610160B0BD7047000075
:1032500080B5806B0021C185FFF7A8F980BD000013
:1032600080B5806B0168496990F84120212A12D10C
:1032700011F080010FD00021C18400BF016851E826
:10328000031F026821F0C00142E80313002BF5D1AF
:10329000202180F841100168496990F84220222AD3
:1032A0002BD111F0400128D00021C185016851E8DF
:1032B000031F026821F4907142E80313002BF5D13B
:1032C000016851E8051F026821F0010142E8051379
:1032D000002BF5D1016B01290AD100BF016851E82B
:1032E000031F026821F0100142E80313002BF5D1FF
:1032F000202180F8421000210163416C41F010014F
:103300004164FFF753F980BD80B50168806B09689F
:10331000C9052FD40021C185016851E8031F026847
:1033200021F4807142E80313002BF5D1016851E8C4
:10333000051F026821F0010142E80513002BF5D1B9
:10334000016851E8051F026821F0400142E80513B9
:10335000002BF5D1202180F84210016B012909D101
:10336000016851E8031F026821F0100142E80313CD
:10337000002BF5D100214163016B012903D1818D1F
:10338000FFF7E2F880BDFFF75DFB80BD80B5806B85
:1033900001214163016B012904D1818D4908FFF7A7
:1033A000D3F880BDFFF750FB80BD000080B582B030
:1033B00090F8421022291ED18268B2F5805F02D1B6
:1033C000016900294AD0816AB2F5805F07D00AB945
:1033D000026922B10268526802F07F0201E00268CD
:1033E00052680A700121826A11448162C18D0139DB
:1033F0000A04C18501D002B080BD0168CA6822F00C
:103400002002CA60CA6822F48072CA604A6922F047
:1034100001024A61202180F8421000214163026BC1
:10342000012A23D1016300BF016851E8031F02682C
:1034300021F0100142E80313002BF5D101680A685E
:10344000D20606D5002201920A68019249680191CC
:103450000199818DFFF778F802B080BD0168826A1A
:1034600049686FF35F2111800221BCE7FFF7EAFA98
:1034700002B080BD10B504460068D4E902C22369D9
:10348000016921F4405111430161626943EA0C0171
:10349000E3691143C268194349F20C639A4311432B
:1034A000C1604169A26921F4407141F200431143B6
:1034B00040F48062C4F201039A42416102D1FEF7F6
:1034C000AFF901E0FEF798F9E16963681922B1F5F7
:1034D000004FA0FB02011DD15A00DB0FFCF7C4FE18
:1034E00048F21F51C5F2EB11A0FB01235A096FF0FE
:1034F000630302FB0300322303EBC000A0FB0101C6
:103500004FF4F87000EA111000EB0210C1F3421101
:1035100008441BE09A009B0FFCF7A6FE48F21F51DF
:10352000C5F2EB11A0FB01235A096FF0630302FB04
:103530000300322303EB0010A0FB0101F02000EA9E
:10354000511000EB0210C1F3431108442168886058
:1035500010BD000080B540F2642040F61801C2F2B0
:103560000000C2F200016422FEF7C0FF80BD00002F
:10357000F0B581B013460027044681628385476415
:10358000222084F84200E06B43F2093543F28D3685
:103590000A462168C0F60005C0F60006C0E90F56CD
:1035A00043F26126C0F600060431C0E91367FDF757
:1035B00005FE38B110206064202084F8420001200C
:1035C00001B0F0BD0097206801680091406800904C
:1035D0000098206950B100BF206850E8030F2168AF
:1035E00040F4807041E80302002AF5D1206850E8D9
:1035F000050F216840F0010041E80502002AF5D1DD
:10360000206850E8050F216840F0400041E80502BD
:10361000002AF5D1002001B0F0BD000080B540F2D5
:103620006420C2F20000FEF7C3FF80BDFEE7000089
:10363000FDF734FFFFF704FDFFF7F4FAFFF78CFA0C
:10364000FFF746FBFFF78AFBFFF708FCFFF730FAAE
:10365000FCF786FFFCF79CFFFFF77CFF00F020F8EB
:10366000FFF79EFA00F030F8FEE70000EFF3058167
:1036700000291CBF6FF005007047002804BF002020
:10368000704780B500F0D4FE002080BD80B5EFF318
:10369000058010B101F0D0FC80BD01F0C7FC80BDF9
:1036A000EFF3058000281CBF6FF00500704740F263
:1036B0008400C2F200000168002911BF4FF0FF3002
:1036C000012101600020704710B5EFF3058000284C
:1036D0001CBF6FF0050010BD40F28400C2F2000074
:1036E000016801291CBF4FF0FF3010BD4EF61F517D
:1036F000CEF2000100240C700221016000F0B4FF42
:10370000204610BD70B584B08E460021002803917C
:10371000EFF305814DD000294BD122B39369002BE3
:1037200008BF1823382B1BD81179C90718D1556940
:10373000946811684FEA950C002D08BF4FF0800C7B
:1037400044B1D6685C2E04D31669002E18BF002D34
:1037500020D10CB9D468C4B10025002455B91DE0AE
:10376000002004B070BD0124002118234FF0800C0C
:1037700000259DB1946812690294CDE90032624639
:10378000734601F0CBFB039013E01469B4FA84F4A0
:103790006409EDE700240125002DEBD14CB103AC09
:1037A00000931FFA8CF27346019401F049FB012843
:1037B00002D1039804B070BD0020E4E7F0B581B0F9
:1037C0000D4644F6544140F2A036C2F20001C2F266
:1037D00000060F6831680446081D00F079FC601C83
:1037E0000AD14DB13068011D44F62C40C2F20000F0
:1037F00000F0E0FC01B0F0BD3068E41944600AD389
:1038000040F2B030C2F2000000683168043100F0CC
:10381000B3FC01B0F0BD40F2A830C2F20000006875
:103820003168043100F0A8FC44F6B830C2F2000060
:1038300001688C4238BF046001B0F0BD2DE9F0474B
:10384000044600F0CFFC44F28C40C2F20000016854
:1038500040F2A03701310160C2F20007396844F636
:10386000204A40F2B836C2F2000AC2F2000651B154
:10387000DAF8000000283ED13868E16AC06A884260
:1038800098BF3C6037E03C600068012833D10025D8
:10389000701900F061FC1435B5F58C6FF8D144F661
:1038A0008438C2F20008404600F056FC44F69839CD
:1038B000C2F20009484600F04FFC44F6CC30C2F298
:1038C000000000F049FC44F64040C2F2000000F065
:1038D00043FC44F62C40C2F2000000F03DFC40F2F4
:1038E000A830C2F20000C0F8008040F2B030C2F24E
:1038F0000000C0F8009044F29840C2F20000016855
:1039000001310160616444F29C41C2F20001E06A4D
:103910000A68904288BF086000EB800006EB8000D8
:10392000211D00F047FC00F081FCDAF8000088B1AE
:103930003868E16AC06A884228BFBDE8F0874EF661
:103940000450CEF200004FF080510160BFF34F8F62
:10395000BFF36F8FBDE8F08770B582B000F042FC16
:1039600044F65846C2F20006306850BB44F658345C
:10397000C2F20004204600F0EFFB44F66C35C2F2C0
:103980000005284600F0E8FB40F2A430C2F2000037
:10399000046040F2B430C2F2000040F2AC2240F2C7
:1039A0004C3305600025C2F20002C2F200030A2077
:1039B0001021009500F0B0FF306010B103A100F0BD
:1039C00001FD00F033FC02B070BD00BF546D7251B8
:1039D0000000000044F2904540F2B83A4EF6045818
:1039E00044F6404744F28C46C2F20005C2F2000A97
:1039F000CEF200084FF08059C2F20007C2F2000672
:103A000003E000BF204600F029FC2868C8B100F0A0
:103A1000E9FBF868C468201D00F05AFB30680138E3
:103A2000306028680138286000F000FC94F85900E4
:103A30000228EAD00128E5D070B9206B00F00EFC16
:103A4000E0E7DAF800000228DFD3C8F80090BFF3FF
:103A50004F8FBFF36F8FD8E74FF0500080F311887E
:103A6000BFF36F8FBFF34F8FFEE700000848006879
:103A7000006880F308884FF0000080F3148862B675
:103A800061B6BFF34F8FBFF36F8F00DF00BF000041
:103A900008ED00E02DE9F04F85B0824601F0C6FA4E
:103AA00040F29C39C2F20009D9F80010054688425C
:103AB00049D240F2A434C2F200042068016800290F
:103AC00043D044F6584BC2F2000B08E078602068FF
:103AD00031463F6100F050FB20680168A9B3C0681F
:103AE000C768D0F800803E1D304600F0F1FA396A10
:103AF0003846884797F828004007EDD5B869404414
:103B00004045E3D88FB3DBF8000078B10020CDE961
:103B10000108039701F076FADBF8000001A9002202
:103B2000002300F067FF0028D6D102E00020002823
:103B3000D2D14FF0500080F31188BFF36F8FBFF3E5
:103B40004F8F00BFFEE7002007E040F2B431C2F221
:103B500000010A68086001202260CAF800002846B7
:103B6000C9F8005005B0BDE8F08F4FF0500080F369
:103B70001188BFF36F8FBFF34F8F00BFFEE70000C8
:103B800081B00020009040F21000C2F200000068F6
:103B90004FF0500181F31188BFF36F8FBFF34F8F48
:103BA000013001D0FEE700BF00980028FCD001B032
:103BB000704700008AB040F2A43A40F2B43944F6AB
:103BC0005848C2F2000A02ACC2F20009C2F2000870
:103BD00001AE00BFDAF8000007681FB1C068D0F876
:103BE00000B001E04FF0000B00F090FD2046FFF721
:103BF00051FF029911B101F073FB7DE00546AFB1B1
:103C00005D4513D301F06CFBDAF80000C068C768AB
:103C100007F10409484600F05BFA97F828004107CD
:103C200007D400F0FE0087F8280012E0B7B10022A8
:103C30001AE0B9693F6101EB0B00A842786029D90D
:103C40005D4501D2584533D2DAF80000494600F00C
:103C500093FA40F2B439C2F2000945E0D9F8000005
:103C60000068B0FA80F04209D8F80000ABEB05011B
:103C700000F0BCFB01F034FB00283DD14EF60450AF
:103C8000CEF200004FF080510160BFF34F8FBFF3C1
:103C90006F8F31E0A5EB0B00884209D240F2B432BD
:103CA000C2F2000210684946914600F065FA1BE036
:103CB000002F00F0C680D8F8000068B10020CDE9E0
:103CC000060B089701F09EF9D8F8000006A900221B
:103CD000002300F08FFE00E0002040F2B439C2F271
:103CE0000009002800F0B780396A3846884703E0A9
:103CF000D9F8000000F040FAD8F800002146002270
:103D000000F082FF00283FF465AF0298B0F1FF3F5A
:103D100003DCDDE903200599904702980028EBD4E5
:103D2000049F786910B1381D00F0D2F93046FFF7D2
:103D3000B1FE02990929DFD8DFE801F00505053B4E
:103D40003E5405053B3E97F82810039ABD6941F0A3
:103D5000010187F82810AB18394641F8043F834227
:103D60003F6104D9904238D2934203D235E0801AA1
:103D7000A842BDD3396A3846884797F828004007DB
:103D8000BAD5002F53D0D8F80000C0B30398B96952
:103D9000089708440021CDE9061001F033F9D8F85E
:103DA000000006A90022002300F024FE0028A3D171
:103DB00029E097F828001DE097F8281041F001024B
:103DC000039987F82820B96139B30A18394641F8B0
:103DD000042F82423F617FF68BAFDAF8000000F0DB
:103DE000CBF989E797F82800810703D4384600F01B
:103DF00035FA81E700F0FE0087F828007CE7002014
:103E000000287FF479AF4FF0500080F31188BFF3A2
:103E10006F8FBFF34F8F00BFFEE74FF0500080F36E
:103E20001188BFF36F8FBFF34F8F00BFFEE74FF0D6
:103E3000500080F31188BFF36F8FBFF34F8F00BF27
:103E4000FEE74FF0500080F31188BFF36F8FBFF390
:103E50004F8F00BFFEE74FF0500080F31188BFF393
:103E60006F8FBFF34F8F00BFFEE70000F0B581B04A
:103E7000044600F0B7F994F94560012E0FDB04F118
:103E8000240500BF286850B1284601F0E1F9002858
:103E900018BF00F0A7FB70B2013E0128F2DCFF263C
:103EA00084F8456000F0C2F900F09CF994F9447080
:103EB000012F0EDB04F11005286850B1284601F0EF
:103EC000C7F9002818BF00F08DFB78B2013F012828
:103ED000F2DC84F8446000F0A9F901B0F0BD000004
:103EE000F0B581B0044600F011FC40F2AC31C2F2F2
:103EF0000001086844F68037C2F2000780BB40F634
:103F00008002C2F20002D61D26F0070612F0070357
:103F1000A2EB060518BF324644F62446C2F200065C
:103F20000020C6E900204FF47056002B18BF05F59D
:103F300070569319083B23F007030B60C3E9000098
:103F4000981A0B68C2E9003044F6B432C2F200029B
:103F5000106044F6AC32C2F20002106001203870EA
:103F60003878002818BF4FF0004020420DD00024C0
:103F700001F0B6F9600712D04FF0500080F31188BD
:103F8000BFF36F8FBFF34F8FFEE75CB160071ABFBF
:103F900004F1100020F0070304F1080303E02046B9
:103FA00001B0F0BD0023002B4FF00004E0D044F638
:103FB000AC3CC2F2000CDCF800008342D8D844F6D6
:103FC0002444C2F20004266875689D420FD232680C
:103FD0004AB100BF5568344616469D4207D2326842
:103FE000002AF7D103E044F62444C2F20004086832
:103FF0008642BCD0D4F800E03068EA1A112A20606A
:104000002FD3F418600708D04FF0500080F31188C8
:10401000BFF36F8FBFF34F8FFEE744F62445C2F224
:1040200000056260736000BF2B462D68A542FBD37C
:104030005A689818A04203D160681C461044586022
:104040006268A018A84201D0294606E009688D429E
:1040500003D0D5E9001010446060A342216018BF6E
:104060001C6044F6B4317068DCF80020C2F2000134
:104070000B68121A9A42CCF8002038BF0A603878D0
:10408000716800284FF0000018BF41F00041306017
:1040900044F6C030C2F2000002680EF108047160FC
:1040A000511C016064E70000034643F68130C0F60E
:1040B00000004FF0807C21F0010103E903106FF054
:1040C000020043F8240CA3F1440043F8202C70476D
:1040D000D0E9013201699A60D1F804C08268844550
:1040E000536008BF4A600022026108680138086016
:1040F0000868704720B940F2A030C2F200000068A2
:10410000006B0178A5291CBF0020704701300021F9
:10411000435C4A1CA52B1146FAD0C2F38F007047AE
:1041200044F2A063C2F20003036044F2A040C2F272
:1041300000000860802010607047000044F6FC23F7
:10414000C2F20003036044F2FC60C2F200000860A7
:104150004FF48070106070474FF0FF31024642F814
:10416000081F00214260C0E903220160704700007F
:10417000002101617047000080B5D1F800C01CF13A
:10418000010207D000F108039E465B681A68624589
:10419000FAD901E0D0F810E0DEF8042008614A60A6
:1041A0009160C1F808E0CEF80410016801310160A7
:1041B00080BD0000D0F800C0436808619A684B6079
:1041C0008A609A68996051600CF101010160704742
:1041D000DFF80C00016841F47001016070470000D5
:1041E00088ED00E04FF0500080F31188BFF36F8F2F
:1041F000BFF34F8F40F21000C2F2000001684A1C6A
:10420000026001B170474EF60450CEF20000006823
:10421000000608BF70474FF0500080F31188BFF3CD
:104220006F8FBFF34F8F00BFFEE7000040F210001A
:10423000C2F20000016839B10139016018BF70474E
:10424000002080F3118870474FF0500080F31188F0
:10425000BFF36F8FBFF34F8FFEE70000B0B50028AC
:1042600008BFB0BD044644F68030C2F200000078BA
:1042700054F8041C002818BF4FF0004008420CD02E
:10428000A4F108052A6892B14FF0500080F311881C
:10429000BFF36F8FBFF34F8FFEE74FF0500080F3F7
:1042A0001188BFF36F8FBFF34F8F00BFFEE721EA86
:1042B000000044F8040C00F029FA44F6AC31C2F2D4
:1042C000000154F8040C0A681044086044F62441C4
:1042D000C2F2000108460968A942FBD3426883186C
:1042E000AB4204D154F8043C05461A4442606A6863
:1042F000AB188B4201D00B460AE040F2AC33C2F25D
:1043000000031B68994203D0D1E90034A118696009
:10431000A8422B6018BF056044F6C430C2F200000A
:1043200001680131016000F0DBFFB0BD4EF210000A
:10433000CEF2000000210160816040F20401C2F26F
:104340000001096844F6D352C1F26202A1FB0212D5
:104350004FF0FF3101EB921141600721016070477E
:10436000EFF30580102814D34EF2F031CEF20001A5
:10437000405C44F28041C2F200010978884208D2D0
:104380004FF0500080F31188BFF36F8FBFF34F8F52
:10439000FEE74EF60C50CEF2000044F28441006875
:1043A000C2F20001096800F4E060884298BF7047DB
:1043B0004FF0500080F31188BFF36F8FBFF34F8F22
:1043C000FEE7000044F6E03C0022C2F2000C00BF11
:1043D0005CF8323023B10132082A08BF7047F7E792
:1043E0000CEBC2034CF832105860704770B515469C
:1043F0000E460446FFF7F6FE94F84400FF2804BF7B
:10440000002084F8440094F84500FF2804BF0020F1
:1044100084F84500FFF70AFFA06B28B904F12400D7
:1044200031462A4600F000F92046FFF71FFD70BD17
:1044300070B5002843D0044644F29440C2F2000014
:10444000016841B14FF0500080F31188BFF36F8FC6
:10445000BFF34F8FFEE7016840F2A03501310160E4
:1044600044F65440C2F20000C2F200050668286813
:104470000430FFF72DFE2868A419446009D340F2E8
:10448000B030C2F20000006829680431FFF774FE02
:1044900010E040F2A830C2F2000000682968043140
:1044A000FFF76AFE44F6B830C2F2000001688C42A1
:1044B00038BF046000F014FF002818BF70BD4EF62E
:1044C0000450CEF200004FF080510160BFF34F8FD7
:1044D000BFF36F8F70BD000070B580B1C9B144F2F9
:1044E0009442C2F200021368EBB14FF0500080F327
:1044F0001188BFF36F8FBFF34F8F00BFFEE74FF000
:10450000500080F31188BFF36F8FBFF34F8F00BF50
:10451000FEE74FF0500080F31188BFF36F8FBFF3B9
:104520004F8F00BFFEE713680133136044F6544316
:10453000C2F200031A680568AA42294402D2A942BD
:1045400002D31CE0A94201D3914218D940F2A03510
:104550000160C2F200051C6828688E1A0430FFF75B
:10456000B7FD2868A41944600BD340F2B030C2F202
:104570000000006829680431FFF7FEFD12E00160C9
:1045800010E040F2A830C2F200000068296804314F
:10459000FFF7F2FD44F6B830C2F2000001688C4229
:1045A00038BF046000F09CFE002818BF70BD4EF6B6
:1045B0000450CEF200004FF080510160BFF34F8FE6
:1045C000BFF36F8F70BD000044F6BC31C2F2000132
:1045D0000968016044F65441C2F200010968416073
:1045E0007047000044F66040C2F200000121016003
:1045F0007047000010B568B10C4640F2A031C2F21D
:10460000000109681831FFF7B7FD20460121FFF7C7
:10461000D5F810BD4FF0500080F31188BFF36F8FB5
:10462000BFF34F8FFEE70000B0B590B10D4640F2EA
:10463000A031C2F20001096814461831FFF7BAFD33
:10464000002C18BF4FF0FF3528462146FFF7B6F87B
:10465000B0BD4FF0500080F31188BFF36F8FBFF3F0
:104660004F8F00BFFEE7000010B586B0002405A8FC
:1046700004A903AACDE90444FFF752FDDDE90320B4
:1046800005990023CDE9010143F6D510C0F60000DD
:104690001CA1009400F042FC44F6B031C2F20001CB
:1046A000086010B100F0B8FE0446601C20D0012C58
:1046B0001CD14FF0500080F31188BFF36F8FBFF310
:1046C0004F8F44F6B830C2F200004FF0FF31016066
:1046D00044F62040C2F200000121016044F654403B
:1046E000C2F200000021016000F066F806B010BDC3
:1046F0004FF0500080F31188BFF36F8FBFF34F8FDF
:10470000FEE700BF49444C450000000044F29440DD
:10471000C2F20000016801310160704744F2944028
:10472000C2F20000006830B144F66040C2F20000FE
:1047300001210160704744F66040C2F20000002190
:1047400044F29C4C0160C2F2000CDCF8001040F214
:10475000B83201EB8103C2F2000252F8230048B9DB
:1047600002EB8300A0F11403D9B153F81409013905
:104770000028F9D001EB810002EB800252F8040F0F
:104780004368101D8342136001D15868106010689F
:1047900040F2A032C068C2F200021060CCF80010F3
:1047A00070474FF0500080F31188BFF36F8FBFF355
:1047B0004F8F00BFFEE70000B0B584B04EF200405E
:1047C000CEF200004CF27021C4F20F11D0F8002993
:1047D0004B1C9A4209D14FF0500080F31188BFF36F
:1047E0006F8FBFF34F8F00BFFEE7D0F800298A42DA
:1047F00009D14FF0500080F31188BFF36F8FBFF3E2
:104800004F8F00BFFEE7017844F280420291FF2102
:1048100001700178C2F200028DF807109DF80710B0
:1048200001F05001117044F28441C2F200010722EC
:104830000A609DF90720B2F1FF3F0BDC0A68013ADC
:104840000A609DF8072052008DF807209DF9072087
:10485000002AF3D40A68032A3CD14FF4E06303EA48
:1048600002220A6002990170D0F8201941F4700107
:10487000C0F82019D0F8201941F07041C0F8201973
:10488000FFF754FD40F21004C2F200040025256039
:10489000FFF79EFC4EF63470CEF20000016841F046
:1048A00040410160FFF7E2F8FFF738FF0395206809
:1048B0004FF0500181F31188BFF36F8FBFF34F8F1B
:1048C000013001D0FEE700BF03980028FCD0002093
:1048D00004B0B0BD4FF0500080F31188BFF36F8F6C
:1048E000BFF34F8FFEE7000080B54FF0500080F31C
:1048F0001188BFF36F8FBFF34F8F00F0A7FB30B16C
:104900004EF60450CEF200004FF0805101600020BE
:1049100080F3118880BD000070B582B068B11C467C
:10492000ABB1F1B9EAB14FF0500080F31188BFF399
:104930006F8FBFF34F8F00BFFEE74FF0500080F343
:104940001188BFF36F8FBFF34F8F00BFFEE74FF0AB
:10495000500080F31188BFF36F8FBFF34F8F00BFFC
:10496000FEE751B14AB94FF0500080F31188BFF310
:104970006F8FBFF34F8F00BFFEE750230193019B62
:10498000502B2DD1019B069E0123002984F846302F
:1049900014BF22602460C4E90F01FFF723FC2068E4
:1049A000D4E90F12002502FB0103013901FB0201CA
:1049B000A563C4E90103FF20E16084F8440084F8A2
:1049C000450004F11000FFF7C7FB04F12400FFF7D6
:1049D000C3FBFFF72BFC204684F84C6002B070BD8F
:1049E0004FF0500080F31188BFF36F8FBFF34F8FEC
:1049F000FEE700002DE9F04F83B00292B8B11D46EA
:104A00000E460446E9B1022D03D1E06B012840F0C7
:104A1000A68000F0F7FA00BB0298F0B14FF050000A
:104A200080F31188BFF36F8FBFF34F8FFEE74FF016
:104A3000500080F31188BFF36F8FBFF34F8F00BF1B
:104A4000FEE7206C0028DED04FF0500080F3118884
:104A5000BFF36F8FBFF34F8FFEE7FFF7C3FBA06B72
:104A6000022D5ED0E16B88425BD304F11008012077
:104A70006F460DF1080900BF0299002900F08280FD
:104A8000C00702D03846FFF79FFDFFF7CFFBFFF7C7
:104A90003DFEFFF7A7FB94F84400FF2804BF002069
:104AA00084F8440094F84500FF2804BF002084F8EF
:104AB0004500FFF7BBFB3846494600F079F900286E
:104AC00063D1FFF78FFBD4F838A0D4F83CB0FFF7E0
:104AD000ADFBDA4516D102994046FFF78BFD204623
:104AE000FFF7C4F900F0FCFB88B94EF60450CEF293
:104AF00000004FF080510160BFF34F8FBFF36F8F05
:104B000005E000BF2046FFF7B1F900F0E9FBFFF731
:104B100069FBA06B022D04D0E16B88424FF00000CE
:104B2000AAD2A76B226C22B3C5B3E0683146FBF76B
:104B300013FCE168206C2268091A9142E16003D2FB
:104B4000A16840420844E060A81EB0FA80F0400925
:104B50003946002F18BF012108403F1A2BE04FF0C3
:104B6000500080F31188BFF36F8FBFF34F8F00BFEA
:104B7000FEE720680025F8B9A06800F01FFBA560DB
:104B8000054619E0FFF752FB04E02046FFF76EF9F7
:104B900000F0A6FB002003B0BDE8F08F606831464E
:104BA000FBF7DAFB216CD4E9010208449042606013
:104BB00001D3206860600025781CA06354F8240F9E
:104BC00078B1204600F044FBB8B14EF60450CEF266
:104BD00000004FF080510160BFF34F8FBFF36F8F24
:104BE0000BE055B14EF60450CEF200004FF080516C
:104BF0000160BFF34F8FBFF36F8FFFF717FB0120EB
:104C000003B0BDE8F08F00002DE9F04F85B00492AD
:104C100098B10C460546002900F0B78000F0F2F983
:104C2000A8B9049898B14FF0500080F31188BFF3F1
:104C30006F8FBFF34F8F00BFFEE74FF0500080F340
:104C40001188BFF36F8FBFF34F8F00BFFEE705F1F1
:104C50001000019005F1240000900DF108090DF1FC
:104C6000100A4FF000080CE02846FFF7FFF800F0AC
:104C700037FBFFF7B7FAAF6BFFF7D8FA002F00F05A
:104C80009280FFF7AFFAD5F838B0BBF1000F27D00C
:104C90002A6C5AB1D5E902101044E860884224BF5A
:104CA0002868E860E9682046FBF756FBABF1010095
:104CB000A863286970B1019800F0CAFA50B14EF6A5
:104CC0000450CEF200004FF080510160BFF34F8FCF
:104CD000BFF36F8FFFF7AAFA00200126A0B963E0A7
:104CE000049850B1B8F1000F02D14846FFF76CFCB0
:104CF0004FF00108012038B956E0FFF797FA002677
:104D00000020002850D000BFFFF790FAFFF7FEFC0C
:104D1000FFF768FA95F84400FF2804BF002085F8E3
:104D2000440095F84500FF2804BF002085F84500A1
:104D3000FFF77CFA4846514600F03AF800287FF425
:104D400093AFFFF74FFAAF6BFFF770FA2FB128461A
:104D5000FFF78CF800F0C4FA93E704990098FFF786
:104D600049FC2846FFF782F800F0BAFA00287FF4E1
:104D700088AF4EF60450CEF200004FF08051016033
:104D8000BFF34F8FBFF36F8F7BE7286C00283FF492
:104D900045AF4FF0500080F31188BFF36F8FBFF322
:104DA0004F8F00BFFEE70026304605B0BDE8F08F0C
:104DB00070B5D8B10D4611B30446FFF713FA44F6A7
:104DC000544EC2F2000EDEF8002029684B1C20D0A1
:104DD00044F6BC3CC2F2000CD4E90003DCF80060ED
:104DE000864218D09A4216D3012424E04FF0500096
:104DF00080F31188BFF36F8FBFF34F8FFEE74FF043
:104E0000500080F31188BFF36F8FBFF34F8F00BF47
:104E1000FEE700240FE0D21A914209D9881A2860CF
:104E2000DCF800002060DEF800006060002402E092
:104E3000002001242860FFF7F9F9204670BD00002A
:104E40002DE9F04F81B0950081462846984692465C
:104E50000F46FFF745F878B104465C20FFF740F8AD
:104E600038B10646046356B94FF0FF3001B0BDE8D3
:104E7000F08F2046FFF7F2F90026002EF4D0306BB9
:104E80004C46DDF828B04FF000092946A52286F8E7
:104E90005990FBF7A6FA306B00EB8A00A0F10400F2
:104EA00020F0070A77B106F1340000217A5C425401
:104EB0007A5C1AB10F2901F10101F7D3002086F8BD
:104EC000430001E086F834900025301DBBF1370F18
:104ED00028BF4FF0370BC6F82CB0C6E913B5FFF763
:104EE00047F906F11800FFF743F9CBF13800B0613C
:104EF00050462146424636617662756586F85850BE
:104F0000FFF7D2F80B9930603046002918BF0E60C9
:104F1000FEF794FC012001B0BDE8F08F2DE9F043CD
:104F200081B01746099A2AB30A9D65B381465C2071
:104F3000009000985C2830D1009802200C46089E12
:104F40002A6385F85900B9001046A5229846FBF758
:104F500048FA286B5CB305F134010022A35C8B5442
:104F6000A35C1BB10F2A02F10102F7D3002185F8DF
:104F700043101FE04FF0500080F31188BFF36F8F94
:104F8000BFF34F8FFEE74FF0500080F31188BFF35F
:104F90006F8FBFF34F8F00BFFEE74FF0500080F3DD
:104FA0001188BFF36F8FBFF34F8F00BFFEE7002163
:104FB00085F8341000EB8700043820F00704002740
:104FC000281D372E28BF3726EE62C5E91367FFF785
:104FD000CFF805F11800FFF7CBF8C6F13800A8614B
:104FE0002046494642462D616D626F6585F85870CE
:104FF000FFF75AF828602846FEF720FC284601B043
:10500000BDE8F08344F62040C2F2000000680028AA
:1050100004BF0120704744F29440C2F200000068CF
:10502000B0FA80F0400940007047000044F6544058
:10503000C2F200000068704780B5FFF791F944F6AE
:105040005440C2F20000006880BD00002DE9F04F1E
:1050500081B044F29440C2F20000006840B144F6CE
:10506000C830C2F200000168002401310160A0E0F4
:1050700044F65440C2F2000001684E1C06602ED374
:1050800040F2A830C2F200000168096849B14FF04F
:10509000500080F31188BFF36F8FBFF34F8F00BFB5
:1050A000FEE740F2B032C2F200020168136803600A
:1050B000116044F6BC31C2F200010A6801320A6094
:1050C0000168096821B10068C068C068406801E0F3
:1050D0004FF0FF3044F6B831C2F20001086044F6E8
:1050E000B831C2F20001086840F2A03A40F2B83884
:1050F0008642C2F2000AC2F2000801D2002446E051
:1051000040F2A837C2F20007386800240068A0B354
:1051100044F29C4BC2F2000B1AE000BFD9F82C00FD
:10512000DBF80010884288BFCBF8000000EB80005D
:1051300008EB80002946FFF73DF8D9F82C00DAF893
:105140000010C96A3A68884228BF01241068B8B1C3
:105150003868C068D0F80C904D4655F8040F864268
:1051600010D32846FEF7B4FFD9F828000028D5D080
:1051700009F11800FEF7ACFFD0E74FF0FF3005E073
:105180004FF0FF3044F6B831C2F200010860DAF89F
:105190000000C06A00EB800058F82000012844F6A7
:1051A0006040C2F2000088BF01240068002818BFD8
:1051B0000124204601B0BDE8F08F0000B0B580B1F9
:1051C000044640F2A030C2F200000068A0420AD0BB
:1051D0004FF0500080F31188BFF36F8FBFF34F8FF4
:1051E000FEE70020B0BD206D38B3411EE06AE26CDE
:1051F000216590424FF0000008BFB0BDE1B9251D08
:105200002846FEF765FFE06CC0F13801A16144F269
:105210009C41E062C2F200010A68904288BF0860C7
:1052200040F2B83100EB8000C2F2000101EB8000D7
:105230002946FEF7BFFF0120B0BD4FF0500080F3BC
:105240001188BFF36F8FBFF34F8F00BFFEE70000E1
:10525000B0B5C068C5687DB105F118042046FEF7F9
:1052600037FF44F29440C2F20000006868B144F68F
:10527000CC30C2F200001DE04FF0500080F31188E6
:10528000BFF36F8FBFF34F8FFEE72C1D2046FEF755
:105290001FFF44F29C41C2F20001E86A0A68904292
:1052A00088BF086040F2B83100EB8000C2F2000114
:1052B00001EB80002146FEF77DFF40F2A031C2F2F3
:1052C0000001E86A0968C96A884291BF002044F673
:1052D0006041C2F20001012088BF0860B0BD00003B
:1052E0002DE9F04F81B044F29444C2F200042068EA
:1052F00068B1FEF777FF206801382060206880B130
:105300000024FEF793FF204601B0BDE8F08F4FF078
:10531000500080F31188BFF36F8FBFF34F8F00BF32
:10532000FEE744F28C40C2F200000068002847D03B
:1053300044F6CC36C2F20006306844F660480028D5
:10534000C2F2000845D044F29C4740F2B83940F21E
:10535000A03BC2F20007C2F20009C2F2000B4FF0FC
:10536000010A00BFF068C56805F11800FEF7B0FE3D
:105370002C1D2046FEF7ACFEE86A3968884288BFDB
:10538000386000EB800009EB80002146FEF712FF39
:10539000E86ADBF80010C96A884228BFC8F800A094
:1053A00030680028DED1A5B140F2A830C2F200007A
:1053B0000168096831B10068C068C068406803E0EE
:1053C00000249EE74FF0FF3044F6B831C2F20001EE
:1053D000086044F6C834C2F20004256855B10126BD
:1053E000FFF734FE002818BFC8F80060013DF7D170
:1053F00000202060D8F8000060B14EF60450CEF2D4
:1054000000004FF080510160BFF34F8F0124BFF3C4
:105410006F8F76E7002474E780B586B0FEF79CFABC
:1054200044F65840C2F20000006808B30020CDE9FD
:10543000040005A804A903AAFEF780FEDDE9032005
:105440000221DDF814C0CDE9001043F6B530C0F6F6
:1054500000000CA10023CDF808C0FFF75FFD44F663
:105460005C41C2F20001086010B1012006B080BDAD
:105470004FF0500080F31188BFF36F8FBFF34F8F51
:10548000FEE700BF546D722053766300F1EE100A00
:105490004FF6FF71C0F2C03120EA010040F04070C9
:1054A000E1EE100A70470000000000000000010259
:1054B00003040607080900000000010203040000BD
:1054C0007655000800000000000000000000000009
:1054D00000000000000200000800000000000000C2
:1054E000000000006D5500080000000000000000F2
:1054F0000000000000000000000200001800000092
:1055000000000000000000006255000800000000DC
:105510000000000000000000000000000002000089
:1055200008000000000000000000000058550008BE
:10553000000000000000000000000000000000006B
:105540000002000008000000000000000000000051
:10555000000610160006101653454E445F44415491
:1055600041004E4F4953455F5441534B004C454415
:105570005F5461736B0042757A7A65725F54617330
:105580006B000000A8550008000000201800000073
:10559000C4010008C0550008180000205058000041
:1055A000E001000800000000D00700000024F40023
:1055B0000100000010000000AAAAAAAA0000000032
:040000050800018965
:00000001FF
